:1000000014C1000043C1000041C100003FC1000015
:100010003DC100003BC1000039C1000037C10000F4
:1000200035C1000033C1000031C100002FC1000004
:100030002DC100002BC1000029C1000040C70000F5
:1000400025C1000023C1000021C100001FC1000024
:100050001DC100001BC1000019C1000088C50000BF
:1000600015C1000036C300000BC300000FC1000023
:100070000DC100000BC1000009C1000007C1000054
:1000800005C1000003C1000001C10000FFC0000065
:10009000CEC20000A3C20000F9C00000C3C500002A
:1000A000F5C00000F3C00000F1C00000EFC0000088
:1000B000EDC00000EBC00000E9C00000E7C0000098
:1000C000E5C00000E3C00000E1C000005EC2000027
:1000D00033C20000DBC00000D9C00000D7C0000060
:1000E000D5C00000AD03B0039F03A303A903E7033A
:1000F000B403B803BE03C203C603CC03D003D403C6
:10010000E703DA03DE03E2030000200023002600F9
:1001100029002C002F00320000010000030106011D
:10012000090105050505070508080808020202027D
:100130000A0A080804040404010101010101010183
:100140000303030303030303040707070C0C0C0C4E
:100150000C0C0C0C02020202060606060606060637
:100160000B0B0B0B0B0B0B0B0102102020080810C4
:100170002040102040800201020108040201010217
:1001800004081020408080402010080402018004F0
:10019000020180402010080402010804020101024B
:1001A0000408102040800102040810204080000054
:1001B0002100240027002A002D0030003300010117
:1001C0000000040107010A010000220025002800A8
:1001D0002B002E003100340002010000050108014F
:1001E0000B0100000A0B02090C0D0E0807030401A5
:1001F00000000000000000000000000000000000FF
:1002000000000000000000000000000000001211CB
:1002100010000000000000000000000000000000CE
:1002200000000000000000001C0E11241FBECFEFD4
:10023000D1E2DEBFCDBF00E00CBF14E0A0E0B2E031
:10024000ECECFDE100E00BBF02C007900D92A23C78
:10025000B107D9F727E0A2ECB4E001C01D92A6389F
:10026000B207E1F711E0C5E1D1E000E006C0219757
:100270000109802FFE010E94D80EC431D10780E011
:100280000807A9F70E94C60A0C94E40EB9CECF92D3
:10029000DF92EF92FF920F931F93CF93DF936C0146
:1002A0007A018B01C0E0D0E0CE15DF0589F0D801DE
:1002B0006D918D01D601ED91FC910190F081E02DC1
:1002C000C6011995892B11F47E0102C02196ECCF4D
:1002D000C701DF91CF911F910F91FF90EF90DF90B9
:1002E000CF900895FC01A089B1898C91A689B78926
:1002F00082FD0FC09C91818D8F5F8F73228D82173D
:1003000049F0218DDF01A20FB11D5D969C93818F75
:1003100008958C910895FC01538D448D252F30E074
:10032000842F90E0821B930B541710F0CF96089502
:1003300001970895FC01918D828D981761F0828D4F
:10034000DF01A80FB11D5D968C91928D9F5F9F7309
:10035000928F90E008958FEF9FEF0895FC01918DAB
:10036000828D981731F0828DE80FF11D858D90E018
:1003700008958FEF9FEF0895FC01918D228D892FB5
:1003800090E0805C9F4F821B91098F73992708959D
:1003900081E995E0F1DF21E0892B09F420E0822F4B
:1003A00008958EE296E0E8DF21E0892B09F420E051
:1003B000822F08958BEC96E0DFDF21E0892B09F492
:1003C00020E0822F0895FC01848DDF01A80FB11D6C
:1003D000A35ABF4F2C91848D90E001968F7399277B
:1003E000848FA689B7892C93A089B1898C91806468
:1003F0008C93938D848D981306C00288F389E02D29
:1004000080818F7D80830895EF92FF920F931F93D9
:10041000CF93DF93EC0181E0888F9B8D8C8D9813B7
:1004200005C0E889F989808185FD23C0F62E0B8DF2
:1004300010E00F5F1F4F0F731127E02E8C8DE81215
:100440000BC00FB607FCFACFE889F989808185FFD8
:10045000F5CFCE01B8DFF2CF8B8DFE01E80FF11D95
:10046000E35AFF4FF0820B8FEA89FB89808180621B
:1004700007C0EE89FF896083E889F98980818064FB
:10048000808381E090E0DF91CF911F910F91FF90E9
:10049000EF900895CF93DF93EC01888D8823C1F00E
:1004A000EA89FB89808185FD05C0A889B9898C917D
:1004B00086FD0EC00FB607FCF5CF808185FFF2CF19
:1004C000A889B9898C9185FFEDCFCE017CDFE8CF7B
:1004D000DF91CF91089580E090E0892B19F06ADFD9
:1004E00081111BC080E090E0892B19F05ADF811147
:1004F00017C080E090E0892B19F04ADF811113C00A
:1005000080E090E0892BA1F080E090E0892B81F0E1
:100510000E94000081110AC008950E940000E2CFED
:100520000E940000E6CF0E940000EACF0C94000079
:10053000089551C50E94E00E1F920F920FB60F92C0
:1005400011240BB60F922F933F934F935F936F93AA
:100550007F938F939F93AF93BF93EF93FF9381E923
:1005600095E031DFFF91EF91BF91AF919F918F9116
:100570007F916F915F914F913F912F910F900BBEA3
:100580000F900FBE0F901F9018951F920F920FB6ED
:100590000F9211240BB60F922F933F934F935F93BB
:1005A0006F937F938F939F93AF93BF93EF93FF933B
:1005B00081E995E097DEFF91EF91BF91AF919F9117
:1005C0008F917F916F915F914F913F912F910F90FC
:1005D0000BBE0F900FBE0F901F9018951F920F9299
:1005E0000FB60F9211240BB60F922F933F934F9398
:1005F0005F936F937F938F939F93AF93BF93EF938B
:10060000FF938EE296E0DFDEFF91EF91BF91AF9115
:100610009F918F917F916F915F914F913F912F911A
:100620000F900BBE0F900FBE0F901F9018951F924A
:100630000F920FB60F9211240BB60F922F933F9388
:100640004F935F936F937F938F939F93AF93BF93DA
:10065000EF93FF938EE296E045DEFF91EF91BF911D
:10066000AF919F918F917F916F915F914F913F914A
:100670002F910F900BBE0F900FBE0F901F901895EB
:100680001F920F920FB60F9211240BB60F922F9359
:100690003F934F935F936F937F938F939F93AF930A
:1006A000BF93EF93FF938BEC96E08DDEFF91EF917C
:1006B000BF91AF919F918F917F916F915F914F917A
:1006C0003F912F910F900BBE0F900FBE0F901F9078
:1006D00018951F920F920FB60F9211240BB60F921E
:1006E0002F933F934F935F936F937F938F939F933A
:1006F000AF93BF93EF93FF938BEC96E0F3DDFF9105
:10070000EF91BF91AF919F918F917F916F915F9189
:100710004F913F912F910F900BBE0F900FBE0F90F6
:100720001F90189590E0FC013197E231F10508F037
:100730004EC08827EE58FF4F8F4F0C94D80E8091F3
:1007400080008F7703C0809180008F7D8093800030
:10075000089580918000877FF9CF84B58F7702C09C
:1007600084B58F7D84BD08958091B0008F7703C0DC
:100770008091B0008F7D8093B000089580919000AB
:100780008F7707C0809190008F7D03C0809190008B
:10079000877F8093900008958091A0008F7707C095
:1007A0008091A0008F7D03C08091A000877F8093FF
:1007B000A0000895809120018F7707C080912001CB
:1007C0008F7D03C080912001877F80932001089551
:1007D0003FB7F8948091190590911A05A0911B05D7
:1007E000B0911C0526B5A89B05C02F3F19F00196B6
:1007F000A11DB11D3FBFBA2FA92F982F8827820FA7
:10080000911DA11DB11DBC01CD0142E0660F771FF6
:10081000881F991F4A95D1F7089585ED8093BC00F4
:100820008091BC0084FDFCCF10926D05089540912D
:10083000EF04262F30E0240F311D21323105DCF486
:1008400020916D052430C9F4FC0180E090E086170A
:1008500058F43091EF042191DC01A353BB4FA30F57
:10086000B11D2C930196F3CF8091EF04680F609334
:10087000EF0480E0089581E0089582E008950895EE
:10088000E091260580912505E81730F4F0E0E95D58
:10089000FA4F808190E008958FEF9FEF0895909137
:1008A000260580912505981750F4E92FF0E0E95DC1
:1008B000FA4F208130E09F5F9093260502C02FEF12
:1008C0003FEFC90108958091250590E0209126050C
:1008D000821B91090895CF92DF92EF92FF920F93BE
:1008E0001F93CF93DF937C01262F972F8A0180914E
:1008F0006E05882391F0C62FD72F6E01C40ED51E2A
:10090000CC15DD0569F06991D701ED91FC9101905D
:10091000F081E02DC7011995F3CF642F822F87DF77
:10092000C801DF91CF911F910F91FF90EF90DF9061
:10093000CF900895CF93DF931F92CDB7DEB7698331
:1009400020916E052223D1F020919005203240F0B5
:1009500021E030E0FC013383228380E090E014C08A
:1009600080916F05E82FF0E0E059FA4F998190836C
:100970008F5F80936F058093900504C061E0CE0186
:10098000019655DF81E090E00F90DF91CF910895BF
:10099000089580E090E008958091C704811105C01A
:1009A0008E9A81E08093C70408958E981092C704B0
:1009B0000895CF93DF931F921F92CDB7DEB780E4E7
:1009C00089836A83CE010196A7D481E090E00F90DD
:1009D0000F90DF91CF910895CF93DF93282F30E0D0
:1009E000F901EE51FE4F8491F901E859FE4FD4917F
:1009F000F901EE5DFE4FC491CC2389F0811192DEA6
:100A0000EC2FF0E0EE0FFF1FE85FFE4FA591B491D1
:100A1000EC91ED2381E090E021F480E002C080E0E1
:100A200090E0DF91CF9108951F93CF93DF93282F0C
:100A300030E0F901EE51FE4F8491F901E859FE4F83
:100A4000D491F901EE5DFE4FC491CC23C1F0162F75
:100A5000811168DEEC2FF0E0EE0FFF1FE853FE4F30
:100A6000A591B4918FB7F894111105C09C91ED2F09
:100A7000E095E92302C0EC91ED2BEC938FBFDF9161
:100A8000CF911F910895CF93DF9390E0FC01E85937
:100A9000FE4F2491FC01EE5DFE4F8491882361F1AD
:100AA00090E0880F991FFC01E255FE4FC591D4914B
:100AB000FC01E853FE4FA591B491611109C09FB7A5
:100AC000F8948881209582238883EC912E230BC093
:100AD000623061F49FB7F8943881822F8095832328
:100AE0008883EC912E2B2C939FBF06C08FB7F89470
:100AF000E8812E2B28838FBFDF91CF9108958F92AD
:100B00009F92AF92BF92CF92DF92EF92FF926B01D2
:100B10007C015EDE4B015C01C114D104E104F104EF
:100B2000E9F056DEDC01CB0188199909AA09BB0955
:100B3000883E9340A105B10578F321E0C21AD1089F
:100B4000E108F10888EE880E83E0981EA11CB11C14
:100B5000C114D104E104F10421F7DECFFF90EF903E
:100B6000DF90CF90BF90AF909F908F9008951F928D
:100B70000F920FB60F9211242F933F938F939F9351
:100B8000AF93BF938091150590911605A09117051D
:100B9000B09118053091140523E0230F2D3720F470
:100BA0000196A11DB11D05C026E8230F0296A11DC7
:100BB000B11D209314058093150590931605A093FD
:100BC0001705B09318058091190590911A05A09109
:100BD0001B05B0911C050196A11DB11D809319053F
:100BE00090931A05A0931B05B0931C05BF91AF917C
:100BF0009F918F913F912F910F900FBE0F901F905B
:100C00001895CF93DF931F921F92CDB7DEB790E870
:100C100099838A83CE0101967FD30F900F90DF9145
:100C2000CF9108951F920F920FB60F9211240BB619
:100C30000F922F933F934F935F936F937F938F9375
:100C40009F93AF93BF93EF93FF938091B900887FF9
:100C5000803609F49CC068F5883209F45BC090F4D2
:100C6000803109F454C038F4882309F4F6C0883080
:100C700009F44DC0F5C0883109F44CC0803209F444
:100C80005DC0EEC0803409F468C048F4803309F4D4
:100C900055C0883309F0E4C080936B05D8C0803517
:100CA00009F44FC0883509F45DC0883409F0D8C014
:100CB000D6C0883909F4C7C0A8F4883709F467C0DA
:100CC00038F4883609F463C0803709F460C0C8C0BE
:100CD000883809F4B8C0803909F45FC0803809F059
:100CE000BFC05BC0803B09F486C038F4803A09F489
:100CF00066C0883A09F47FC0B3C0803C09F4A7C03D
:100D0000883C09F4A4C0883B09F48AC0A9C080913A
:100D1000480510C090916A0580916905981770F593
:100D2000E0916A0581E08E0F80936A05F0E0E75B51
:100D3000FA4F80818093BB0085EC86C080936B0561
:100D40008EC0E0916A0581E08E0F80936A058091E4
:100D5000BB00F0E0E75BFA4F808390916A058091D9
:100D600069056EC0E0916A0581E08E0F80936A0587
:100D70008091BB00F0E0E75BFA4F808380916C05C7
:100D800081116DC081E08093470584EA61C083E0F2
:100D900080936D0510921305CFCF8091130580329B
:100DA00008F051C0E091130581E08E0F8093130588
:100DB0008091BB00F0E0ED50FB4F8083BDCF85EC10
:100DC0008093BC0010926D0580911305803230F441
:100DD000E0911305F0E0ED50FB4F10826091130598
:100DE00070E0E091F104F091F20483EF94E0199542
:100DF0001092130535C084E080936D051092F004C5
:100E00001092EF04E091ED04F091EE0419958091B9
:100E1000EF04811105C081E08093EF041092CD04AE
:100E2000E091F00481E08E0F8093F004F0E0E35352
:100E3000FB4F80818093BB009091F0048091EF0480
:100E4000981708F479CF85E88093BC0009C085EC39
:100E50008093BC0010926D0503C010926B05DDDC21
:100E6000FF91EF91BF91AF919F918F917F916F9182
:100E70005F914F913F912F910F900BBE0F900FBE3E
:100E80000F901F90189510926D0581E080936C056E
:100E90001092470561E084E1C7DD61E085E1C4DDD2
:100EA000E9EBF0E080818E7F808380818D7F80837D
:100EB00088E48093B80085E48093BC0008951F9275
:100EC0000F920FB60F9211240BB60F922F933F93F0
:100ED0004F935F936F937F938F939F93AF93BF9342
:100EE000EF93FF9380911D0590911E058093B200B2
:100EF0008091C9049091CA04A091CB04B091CC0414
:100F00000196A11DB11D8093C9049093CA04A093BA
:100F1000CB04B093CC048091C9049091CA04A091F1
:100F2000CB04B091CC0440912105509122056091F1
:100F300023057091240584179507A607B70710F1BC
:100F40008091C80481111EC081E08093C804809103
:100F5000C9049091CA04A091CB04B091CC04841B25
:100F6000950BA60BB70B8093C9049093CA04A0936A
:100F7000CB04B093CC04E0911F05F09120051995A6
:100F80001092C804FF91EF91BF91AF919F918F9103
:100F90007F916F915F914F913F912F910F900BBE79
:100FA0000F900FBE0F901F9018951092C9041092C9
:100FB000CA041092CB041092CC041092C804809101
:100FC0001D0590911E058093B200E0E7F0E080815E
:100FD0008160808308956115710579F0FB010190AE
:100FE0000020E9F73197AF01461B570BDC01ED916B
:100FF000FC910280F381E02D199480E090E0089547
:10100000CF93DF93EC016BE773E081E995E0E3DFD9
:1010100064E670E080E090E072DD65E973E081E90C
:1010200095E0D9DF64E670E080E090E068DD63EE93
:1010300072E081E995E0CFDF64E670E080E090E067
:101040005EDD6FEA73E081E995E0C5DF64E670E09C
:1010500080E090E054DD6DEE72E08EE296E0BBDF62
:1010600064E670E080E090E04ADDC130D10519F11E
:10107000C230D10509F43BC0CD2B09F05BC06AEC4E
:1010800073E081E995E0A7DF64E670E080E090E03E
:1010900036DD66EE73E081E995E09DDF60EA7FE092
:1010A00080E090E02CDD6EE273E081E995E093DF73
:1010B00061E074E037C06DE174E081E995E08BDFB9
:1010C00064E670E080E090E01ADD69E374E081E9B5
:1010D00095E081DF6CEA7DE080E090E010DD6EE27B
:1010E00073E081E995E077DF64E574E01BC060E7B9
:1010F00074E081E995E06FDF64E670E080E090E005
:10110000FEDC6CE874E081E995E065DF60EA7FE091
:1011100080E090E0F4DC6EE273E081E995E05BDF73
:1011200067EA74E081E995E056DF64E670E080E00C
:1011300090E0E5DC60E572E081E995E0DF91CF9138
:101140004ACF2091900590918507213208F04AC03E
:1011500080916D058111FCCF32E030936D0531E057
:1011600030936C053FEF30936B0510926A05209326
:101170006905A0E7B5E049E455E0FA013E2F341BCC
:10118000321718F43D913193F9CF10924805209110
:101190004805990F922B90934805909147059130FF
:1011A00061F410924705909148059093BB0090918F
:1011B000BC0093FDF8CF95EC01C095EE9093BC0078
:1011C00090916D059230E1F390916B059F3F79F01E
:1011D00080916B05803241F080916B05803331F056
:1011E00084E005C081E003C082E001C083E010928A
:1011F0006F051092900510926E050895CF93DF93BE
:101200001F92CDB7DEB791E090936E0599E290936F
:10121000850710926F0510929005682F606888E628
:1012200097E0498387DB4981642F88E697E082DB7A
:101230000F90DF91CF9185CF90916D059111FCCFEB
:10124000813208F080E291E090936D0590936C05F7
:101250002FEF20936B0510926A05280F20936905E4
:101260009093480590914805926590934805909118
:101270004705913061F4109247059091480590938D
:10128000BB009091BC0093FDF8CF95EC01C095EEAA
:101290009093BC0090916D059130E1F390916A05B7
:1012A000981710F480916A05A9E4B5E027E235E0CB
:1012B000F9019E2F921B981718F49D919193F9CFE5
:1012C00010922605809325050895FC01A089B18917
:1012D00082E08C93A485B5851C92A685B78580E1B4
:1012E0008C93108EA489B58986E08C93A289B389EA
:1012F0008C9180618C93A289B3898C9188608C9346
:10130000A289B3898C9180688C930288F389E02D3F
:1013100080818F7D80830895CF93DF93EC0181E0FE
:1013200080936E058EE38093850710926F0510926F
:101330009005688188E697E0FDDA698188E697E0A4
:10134000F9DADF91CF91FDCECF93C62F91E0909344
:101350006E0592E69093850710926F0510929005A6
:10136000682F88E697E0E6DA6C2F88E697E0E2DA05
:10137000CF91E7CECF93DF931092260510922505EB
:1013800010926F05109290057EDD81E080936E05CE
:1013900089E28093850762E988E697E0CBDAD1DEBF
:1013A00081E090E049DF88E697E079DA843411F053
:1013B0008031A1F581E080937407C0917707D091C7
:1013C0007807AE0160E070E019DFD0937807C09332
:1013D0007707C0917507D0917607809174078111C6
:1013E00001C0C8DFAE0160E070E08FE007DFD0939E
:1013F0007607C093750741E050E060E070E080E060
:10140000FDDE63E070E080E090E079DB43E050E0F7
:1014100060E070E080E0F2DE81E001C080E0DF911A
:10142000CF910895611571058105910569F481E0F9
:1014300090E0A0E0B0E08093210590932205A09376
:101440002305B093240508C06093210570932205FD
:1014500080932305909324058CEC94E090932005D1
:1014600080931F05809170008E7F80937000809123
:10147000B0008C7F8093B0008091B100877F809313
:10148000B1008091B6008F7D8093B600809170008E
:101490008D7F809370008091B10084608093B10053
:1014A0008091B1008C7F8093B1008EEF90E090939B
:1014B0001E0580931D050895CF93DF9391E09093CF
:1014C0006E0599E29093850710926F051092900532
:1014D000682F606888E697E02DDA33DE82E090E0DE
:1014E000ABDE88E697E0DBD9EC0188E697E0D7D958
:1014F00020E030E0382FC9018C2B9D2BDF91CF915C
:101500000895CF92DF92EF92FF920F931F93E82FEF
:10151000F92F05C0015011092109310961F19081AC
:1015200096239417B9F305C0015011092109310917
:1015300011F1908196239413F7CFC12CD12CE12C7B
:10154000F12C0AC08FEFC81AD80AE80AF80A0C155D
:101550001D052E053F0579F080818623841791F3C0
:101560006C2D7D2D8E2D9F2D1F910F91FF90EF9053
:10157000DF90CF90089560E070E080E090E01F91F0
:101580000F91FF90EF90DF90CF900895CF93DF936E
:10159000CDB7DEB7A1970FB6F894DEBF0FBECDBFB3
:1015A000789484B5826084BD84B5816084BD85B53E
:1015B000826085BD85B5816085BD80916E0081604A
:1015C00080936E00109281008091810082608093F0
:1015D00081008091810081608093810080918000F2
:1015E0008160809380008091B10084608093B1001D
:1015F0008091B00081608093B00080919100826002
:1016000080939100809191008160809391008091FE
:1016100090008160809390008091A100826080930F
:10162000A1008091A10081608093A1008091A00021
:1016300081608093A00080912101826080932101CC
:10164000809121018160809321018091200181603E
:101650008093200180917A00846080937A00809149
:101660007A00826080937A0080917A008160809312
:101670007A0080917A00806880937A001092C1008D
:101680008BEC96E022DE60E372E08BEC96E00E9449
:1016900099026EE372E08BEC96E00E9499028EE272
:1016A00096E013DE81E995E010DE62E085E0EBD99B
:1016B00062E08CE0E8D961E088E3E5D961E082E0AE
:1016C000E2D961E083E0DFD961E084E0DCD961E068
:1016D0008CE3D9D961E08DE3D6D961E088E3A4D960
:1016E00061E082E0A1D960E083E09ED960E084E01F
:1016F0009BD960E08CE398D960E08DE395D966E4EE
:1017000072E08EE296E067DC60E572E08EE296E0E1
:1017100062DC6AE672E08EE296E05DDC66E472E02E
:1017200081E995E058DC60E572E081E995E053DC01
:101730006AE672E081E995E04EDC1CDE1092260537
:101740001092250510926F05109290059CDB8091F8
:101750007F07982F986090937F0712E0109383077C
:1017600010928407EBE3FDE03197F1F7886249DAE4
:101770008BE496E40197F1F780917F07806241DA6C
:1017800083E592E00197F1F780917F07806239DA73
:1017900080917F07806235DA84E0809380078CE057
:1017A00030DA81E02EDA8BE39FE10197F1F71093B5
:1017B000810786E026DA60E080E0C6DD6FEF88E032
:1017C000C3DD60E281E0C0DD6FEF84E0BDDD6FEF7F
:1017D00083E0BADD6FEF82E0B7DD60E084E0B4DD86
:1017E00060E083E0B1DD6FEF82E0AEDD64E772E0E0
:1017F0008BE797E00E94990280E8898380EC8A83D6
:10180000CE01019689DD63E872E08BE797E00E94E4
:1018100099023324339493E0A92EB12C2FE0822E29
:10182000912C38EC232E4AE0442E512C612C712C43
:1018300080917407811101C09DDD84E13DDE86E168
:101840003BDE6C0188E138DE8C018AE135DE7C010B
:101850008091770790917807853D910519F154F4AF
:10186000009729F1803C910539F56AE970E080E044
:1018700090E021C0863F910581F08F3F910541F0B6
:101880008B3E9105C9F462E370E080E090E013C004
:1018900063E070E080E090E00EC068E170E080E01E
:1018A00090E009C065E670E080E090E004C06CEB79
:1018B00072E080E090E023D98CE08ED8892B21F46F
:1018C0008091C604882321F1C60188509740813B4E
:1018D00024E0920708F0B8C09801245F3140293E07
:1018E000334008F094C09701245F314021323340E7
:1018F00008F08DC062E573E08BEC96E00E949902DF
:10190000809170008E7F8093700080E090E090C1A5
:1019100065E972E08BEC96E00E9499023092C60471
:101920006DE972E08EE296E056DB64E670E080E0FE
:1019300090E0E5D869EB72E08EE296E04CDB64E67D
:1019400070E080E090E0DBD868EC72E08EE296E038
:1019500042DB68EE73E080E090E0D1D863EE72E0A5
:101960008EE296E038DB64E670E080E090E0C7D875
:101970006DE972E08EE296E02EDB60ED77E080E0CC
:1019800090E0BDD86DEE72E08EE296E024DB64E676
:1019900070E080E090E0B3D86BEF72E08EE296E00A
:1019A0001ADB64E670E080E090E0A9D865E173E0BE
:1019B0008EE296E010DB60ED77E080E090E09FD86B
:1019C0006EE273E08EE296E006DB64E670E080E0B3
:1019D00090E095D868E373E08EE296E0FCDA64E686
:1019E00070E080E090E08BD860E572E08EE296E0F7
:1019F000F2DA64E670E080E090E081D868E070E0C0
:101A000080E090E00FDDD1DA3092C5045DCF893EF1
:101A10009340D0F4C801805F9A40853A9640A0F484
:101A2000C7018C5494408937954070F46EE573E09B
:101A30008BEC96E00E949902809170008E7F8093DB
:101A4000700081E090E0F4C020EAC21A2FE0D20AD0
:101A500041EDC41647E0D40678F4085D1E4009390C
:101A6000184050F484E1E81A85E0F80AE5EAEE1639
:101A7000E6E0FE0608F4CFC08091C504882309F48F
:101A800065C0F89461E0809179070E94430560E0A9
:101A9000809179070E941405C5010197F1F761E073
:101AA000809179070E941405C4010197F1F760E065
:101AB000809179070E94140560E0809179070E9467
:101AC00043058091790790917A079927FC01E8599D
:101AD000FE4F6491FC01EE5DFE4FE491F0E0EE0FED
:101AE000FF1FE85FFE4F8591949100E412E42FE020
:101AF00030E0462F06DD611571058105910559F02D
:101B0000DC01CB010196A11DB11DBF708434924050
:101B1000A105B105C0F48091C404811111C0809168
:101B2000C2049091C30401969093C3048093C204AD
:101B30001092C50465E070E080E090E073DC35DA77
:101B40003092C40402C01092C404789485E00E94CC
:101B5000EC04892B81F41092C3041092C20420E893
:101B600029832A82CE010196D7DB6CE872E08BE7ED
:101B700097E00E94990240E849832A82CE010196AB
:101B8000CBDBC090C204D090C3040D2C000CEE0837
:101B9000FF08F7FE25C0E0917B07F0917C070190DC
:101BA000F081E02D6DE28BE797E01995222733272E
:101BB000A9012C193D094E095F0919A28E010F5D7B
:101BC0001F4FCA01B901A3019201D0D0605DF80195
:101BD00062938F01211531054105510591F714C01C
:101BE000A701960119A28E010F5D1F4FCA01B9010D
:101BF000A3019201BBD0605DF80162938F012115B2
:101C000031054105510591F7B8018BE797E0E3D91C
:101C10000E946B020DCE6CE673E08BEC96E00E94A6
:101C20009902809170008E7F8093700082E090E036
:101C3000E7D91092C60420CFE1E9F5E013821282C1
:101C400088EE93E0A0E0B0E084839583A683B78319
:101C500024E032E03183208345ED50E0558744870E
:101C600044ED50E05787468740ED50E0518B408B64
:101C700041ED50E0538B428B42ED50E0558B448B4D
:101C800046ED50E0578B468B118E128E138E148EBC
:101C9000EEE2F6E01382128284839583A683B783F3
:101CA000318320834DEC50E0558744874CEC50E065
:101CB0005787468748EC50E0518B408B49EC50E009
:101CC000538B428B4AEC50E0558B448B4EEC50E0EA
:101CD000578B468B118E128E138E148EEBECF6E022
:101CE0001382128284839583A683B78331832083F2
:101CF00025EC30E03587248724EC30E037872687D1
:101D000020EC30E0318B208B21EC30E0338B228BC8
:101D100022EC30E0358B248B26EC30E0378B268BA1
:101D2000118E128E138E148EE8E6F7E01382128263
:101D300084839583A683B78386E192E09183808331
:101D4000EBE7F7E01382128288E292E091838083CE
:101D50008AE090E090937A0780937907E4E7F7E0D0
:101D6000108214821382128211820895A1E21A2E27
:101D7000AA1BBB1BFD010DC0AA1FBB1FEE1FFF1F2F
:101D8000A217B307E407F50720F0A21BB30BE40B7F
:101D9000F50B661F771F881F991F1A9469F76095C6
:101DA0007095809590959B01AC01BD01CF01089580
:101DB000EE0FFF1F881F8BBF0790F691E02D19943F
:0C1DC00081E090E0F89400C0F894FFCFA0
:101DCC0000000000040247018B014A02BC019A0189
:101DDC00AE01000000009A046B04C9043F046304C4
:101DEC004F04400400000000D9044701C904C80492
:101DFC00436F6E7665796F7242656C740A0056316A
:101E0C002E312E300A004D323430302053300A003F
:101E1C0047302058313830205930205A3136302054
:101E2C0046323030303030300A004D3231323220D0
:101E3C0056310A0020636F6E7665796F7220626589
:101E4C006C74002020636F756E743A002020202083
:101E5C00202020200073746172740D0A004730201A
:101E6C0058363920592D323137205A3130302046EE
:101E7C00323030303030300A004732323032204E7F
:101E8C003320563130380A00473020583639205923
:101E9C002D323137205A333020463230303030300A
:101EAC00300A004D323233312056310A004732327B
:101EBC003032204E33205639300A0047302058310A
:101ECC003536205930205A313030204632303030BF
:101EDC003030300A00473020583135362059302008
:101EEC005A35322046323030303030300A004D32E4
:101EFC003233312056300A004730205831363520E5
:101F0C005930205A31303020463230303030303079
:101F1C000A0072656420626C6F636B0D0A00677255
:101F2C0065656E20626C6F636B0D0A0079656C6C75
:101F3C006F7720626C6F636B0D0A0047302058314D
:101F4C00353720593539205A383020463230303028
:101F5C003030300A00473020583135372059353968
:101F6C00205A35322046323030303030300A00477B
:101F7C0030205831353720593539205A31303020FE
:101F8C0046323030303030300A004730205831364D
:101F9C00302059313830205A3130302046323030F0
:101FAC00303030300A00473020583136302059312B
:101FBC003830205A31302046323030303030300A10
:101FCC0000473020583136302059313830205A31C2
:101FDC0036302046323030303030300A0047302036
:101FEC00583136302059323330205A313030204677
:101FFC00323030303030300A0047302058313630F3
:10200C002059323330205A31302046323030303083
:10201C0030300A00473020583136302059323330B6
:10202C00205A3136302046323030303030300A00D1
:10203C00473020583136302059323830205A313020
:10204C00302046323030303030300A0047302058A3
:10205C003136302059323830205A31302046323027
:10206C0030303030300A004730205831363020596B
:10207C00323830205A333020463230303030303025
:02208C000A0048
:00000001FF
